:100000000C942A000C9434000C9434000C943400AA
:100010000C9434000C9434000C9434000C94340090
:100020000C9434000C9434000C9434000C94340080
:100030000C9434000C9434000C9434000C94340070
:100040000C9434000C9434000C9434000C94340060
:100050000C94340011241FBECFE5D8E0DEBFCDBF25
:100060000E9442000C944C000C9400008CB59DB58D
:1000700089309D43D8F38CB59DB589509D439DBD76
:100080008CBD0895B89A83E08EBDC0980E9436005A
:0C009000C09A0E943600F9CFF894FFCF10
:00000001FF
