:100000000C94A7000C94C4000C94C4000C94C4007D
:100010000C94C4000C94C4000C94C4000C94C40050
:100020000C94C4000C94C4000C94C4000C94C40040
:100030000C94C4000C94C4000C94C4000C94C40030
:100040000C94C4000C94C4000C94C4000C94C40020
:100050000C94C40000407A10F35A00A0724E1809A4
:100060000010A5D4E80000E87648170000E40B541F
:10007000020000CA9A3B000000E1F50500008096EE
:100080009800000040420F000000A0860100000020
:10009000102700000000E8030000000064000000DA
:1000A00000000A00000000000100000000002C76A3
:1000B000D888DC674F0823DFC1DFAE59E1B1B796BE
:1000C000E5E3E453C63AE651997696E8E6C284261B
:1000D000EB898C9B62ED407C6FFCEFBC9C9F40F2F7
:1000E000BAA56FA5F490055A2AF75C936B6CF96773
:1000F0006DC11BFCE0E40D47FEF520E6B500D0ED38
:10010000902E0300943577050080841E080000209F
:100110004E0A000000C80C333333330F986E12833D
:100120001141EF8D2114893BE65516CFFEE6DB1811
:10013000D1844B381BF77C1D901DA4BBE4242032D6
:1001400084725E228100C9F124ECA1E53D271124CF
:100150001FBECFE5D8E0DEBFCDBF10E0A0E6B0E027
:10016000ECE2F4E102C005900D92AE37B107D9F789
:1001700020E0AEE7B0E001C01D92AC39B207E1F774
:100180000E9454020C94140A0C94000088BB82B3A1
:100190008B7782BB959A83EC99E00197F1F700C0C9
:1001A00000009598089588BB979882B3846282BBBB
:1001B00083EC99E00197F1F700C00000959808954D
:1001C00081B3846A81BB83EC99E00197F1F700C0A9
:1001D000000087B38FEF87BB83EC99E00197F1F7BD
:1001E00000C0000081E00E94C60083EF91E001970B
:1001F000F1F700C0000088E30E94C60083ED90E3A1
:100200000197F1F700C000008EE00E94C60083ED68
:1002100090E30197F1F700C000000895CF93DF93BA
:10022000EC018881882331F021960E94D3008991C6
:100230008111FBCFDF91CF910895E62FF0E0E15AD5
:10024000FF4F80589081890F0E94C600089516BE06
:1002500094EA96BF06B607FEFDCF91B1987F98301D
:1002600079F483B984E886BF06B607FEFDCF91B165
:10027000987F983139F081E0903429F480E0089536
:1002800081E0089580E0089583B984E886BF06B6CA
:1002900007FEFDCF91B1987F81E0983209F480E0AC
:1002A000089584EC86BF06B607FEFDCF83B108959E
:1002B00084E886BF06B607FEFDCF83B10895CF93CD
:1002C0008BE792E90197F1F700C0000080ED0E94F2
:1002D000270189E10E94440187E00E944401C4E9AA
:1002E000C6BF80ED0E9427018BE60E94440181E099
:1002F0000E944401C6BF80ED0E9427018AE10E944E
:10030000440180E00E944401C6BF80ED0E942701A5
:100310008BE10E94440188E10E944401C6BF80ED48
:100320000E94270188E30E94440181E00E94440169
:10033000C6BFCF91089580ED0E9427018BE30E94F4
:10034000440181ED0E9427010895CF930E949B01F3
:100350000E945101C82F0E9451016C2F70E0762F2E
:100360006627682B072E000C880B990B0E94DF0371
:1003700060939400709395008093960090939700FB
:100380000E945101C82F0E9451016C2F70E0762FFE
:100390006627682B072E000C880B990B0E94DF0341
:1003A00060938C0070938D0080938E0090938F00EB
:1003B0000E945101C82F0E9451016C2F70E0762FCE
:1003C0006627682B072E000C880B990B0E94DF0311
:1003D00060937E0070937F008093800090938100F3
:1003E0000E945101C82F0E9451016C2F70E0762F9E
:1003F0006627682B072E000C880B990B0E94DF03E1
:1004000060938600709387008093880090938900A2
:100410000E945101C82F0E9451016C2F70E0762F6D
:100420006627682B072E000C880B990B0E94DF03B0
:100430006093820070938300809384009093850082
:100440000E945101C82F0E9451016C2F70E0762F3D
:100450006627682B072E000C880B990B0E94DF0380
:10046000609398007093990080939A0090939B00FA
:100470000E945101C82F0E9458016C2F70E0762F06
:100480006627682B072E000C880B990B0E94DF0350
:1004900060939000709391008093920090939300EA
:1004A00084E986BFCF910895CF93DF93CDB7DEB7B0
:1004B000A2970FB6F894DEBF0FBECDBF0E94E0003A
:1004C0008DEF80B90E945F017E0185E1E80EF11C8D
:1004D0000F2EF2E6AF2EF0E0BF2EF02DCE010196EA
:1004E0006C010F2EFAE68F2EF0E09F2EF02D0F2ECE
:1004F000F2E72F2EF0E03F2EF02D0E94A50120E024
:1005000030E040E858E360918C0070918D0080915C
:100510008E0090918F000E946B046F8F78A389A347
:100520009AA320E030E04AEA53E46091860070919B
:10053000870080918800909189000E946B0328EBCE
:100540003EE142E152E40E94FF022B013C0120E027
:1005500030E040E858E360919400709195008091FC
:100560009600909197000E946B04870122E043E07F
:100570000E94D804FF92EF92BF92AF92DF92CF9287
:100580000E94F80461E081E40E941D01C6010E94FE
:100590000E0122E043E06F8D78A189A19AA10E940B
:1005A000D804FF92EF929F928F92DF92CF920E9497
:1005B000F80461E088E40E941D01C6010E940E015A
:1005C00022E043E0C301B2010E94D8041F9298EFD9
:1005D0009F93FF92EF923F922F92DF92CF920E94D1
:1005E000F80461E081E00E941D01C6010E940E0135
:1005F0000FB6F894DEBF0FBECDBF7FCF5058BB27DC
:10060000AA270E9416030C9431040E94230438F098
:100610000E942A0420F039F49F3F19F426F40C9428
:1006200020040EF4E095E7FB0C941A04E92F0E94D5
:10063000420458F3BA17620773078407950720F03E
:1006400079F4A6F50C9464040EF4E0950B2EBA2F01
:10065000A02D0B01B90190010C01CA01A0011124C8
:10066000FF27591B99F0593F50F4503E68F11A1674
:10067000F040A22F232F342F4427585FF3CF469505
:1006800037952795A795F0405395C9F77EF41F1627
:10069000BA0B620B730B840BBAF09150A1F0FF0FF1
:1006A000BB1F661F771F881FC2F70EC0BA0F621FDD
:1006B000731F841F48F4879577956795B795F795CD
:1006C0009E3F08F0B0CF9395880F08F09927EE0F62
:1006D0009795879508950E947F030C9431040E949A
:1006E0002A0458F00E94230440F029F45F3F29F0C7
:1006F0000C941A0451110C9465040C9420040E946B
:10070000420468F39923B1F3552391F3951B550BDC
:10071000BB27AA2762177307840738F09F5F5F4FD4
:10072000220F331F441FAA1FA9F335D00E2E3AF013
:10073000E0E832D091505040E695001CCAF72BD02B
:10074000FE2F29D0660F771F881FBB1F261737077C
:100750004807AB07B0E809F0BB0B802DBF01FF27AE
:1007600093585F4F3AF09E3F510578F00C941A046D
:100770000C9465045F3FE4F3983ED4F38695779537
:100780006795B795F7959F5FC9F7880F911D969567
:10079000879597F90895E1E0660F771F881FBB1FC3
:1007A000621773078407BA0720F0621B730B840B70
:1007B000BA0BEE1F88F7E0950895E89409C097FBFF
:1007C0003EF490958095709561957F4F8F4F9F4F28
:1007D0009923A9F0F92F96E9BB279395F69587956C
:1007E00077956795B795F111F8CFFAF4BB0F11F42F
:1007F00060FF1BC06F5F7F4F8F4F9F4F16C08823D6
:1008000011F096E911C0772321F09EE8872F762F0B
:1008100005C0662371F096E8862F70E060E02AF04C
:100820009A95660F771F881FDAF7880F9695879538
:1008300097F9089597F99F6780E870E060E0089560
:100840009FEF80EC089500240A94161617061806E8
:100850000906089500240A941216130614060506C4
:100860000895092E0394000C11F4882352F0BB0F55
:1008700040F4BF2B11F460FF04C06F5F7F4F8F4FB8
:100880009F4F089557FD9058440F551F59F05F3FF3
:1008900071F04795880F97FB991F61F09F3F79F0A2
:1008A00087950895121613061406551FF2CF469524
:1008B000F1DF08C0161617061806991FF1CF8695A6
:1008C0007105610508940895E894BB27662777278A
:1008D000CB0197F908950E947E040C9431040E9484
:1008E000230438F00E942A0420F0952311F00C9480
:1008F0001A040C94200411240C9465040E944204F0
:1009000070F3959FC1F3950F50E0551F629FF00162
:10091000729FBB27F00DB11D639FAA27F00DB11D7B
:10092000AA1F649F6627B00DA11D661F829F222704
:10093000B00DA11D621F739FB00DA11D621F839F8B
:10094000A00D611D221F749F3327A00D611D231F61
:10095000849F600D211D822F762F6A2F11249F57AF
:1009600050409AF0F1F088234AF0EE0FFF1FBB1FB2
:10097000661F771F881F91505040A9F79E3F510571
:1009800080F00C941A040C9465045F3FE4F3983EE5
:10099000D4F3869577956795B795F795E7959F5F1B
:1009A000C1F7FE2B880F911D9695879597F90895AD
:1009B000EF920F931F93CF93DF93E80147FD02C09F
:1009C00034E001C034E1042E000C550B57FF03C086
:1009D000519541955109E32E022F242FAE010E941B
:1009E000FB06CE01DF91CF911F910F91EF900895FB
:1009F000AEE0B0E0EEEFF4E00C94EB090D891E8957
:100A000086E08C831A8309838FEF9FE79E838D8313
:100A1000AE01475E5F4F6F89788DCE0101960E94CF
:100A20001A05EF81F885E00FF11F10822E96E4E0A1
:100A30000C94070AABE0B0E0E0E2F5E00C94DD09CD
:100A40006C017B018A01FC0117821682838181FF80
:100A5000CCC1CE0101963C01F6019381F70193FDD3
:100A6000859193FF81917F01882309F4BAC1853272
:100A700039F493FD859193FF81917F01853229F4AB
:100A8000B60190E00E944309E7CF912C212C312C34
:100A9000FFE1F315D8F08B3279F038F4803279F039
:100AA0008332A1F4232D20611DC08D3261F080338B
:100AB00069F4232D216016C0832D8260382EE32D2A
:100AC000E4603E2E2AC0F32DF8601DC037FC2DC017
:100AD00020ED280F2A3040F08E32B9F436FC81C167
:100AE000232D2064322E19C036FE06C08AE0989E5F
:100AF000200D1124922E11C0EAE02E9E200D11240B
:100B0000222EF32DF0623F2E08C08C3621F4832D67
:100B10008068382E02C0883641F4F70193FD859134
:100B200093FF81917F018111B3CF982F9F7D9554C1
:100B3000933028F40C5F1F4F9FE399830DC08336D9
:100B400031F0833771F0833509F059C021C0F801C5
:100B5000808189830E5F1F4F88248394912C5301D9
:100B600013C02801F2E04F0E511CF801A080B180A3
:100B700036FE03C0692D70E002C06FEF7FEFC50144
:100B80000E9438094C018201F32DFF773F2E16C0D9
:100B9000280122E0420E511CF801A080B18036FEEF
:100BA00003C0692D70E002C06FEF7FEFC5010E94A6
:100BB0002D094C01F32DF0683F2E820133FC1BC040
:100BC000822D90E088169906B0F4B60180E290E09C
:100BD0000E9443092A94F4CFF50137FC859137FE32
:100BE00081915F01B60190E00E94430921102A948F
:100BF00021E0821A91088114910471F7E8C08436CB
:100C000011F0893641F5F80137FE07C06081718126
:100C1000828193810C5F1F4F08C060817181072E14
:100C2000000C880B990B0E5F1F4FF32DFF763F2EA4
:100C300097FF09C090958095709561957F4F8F4F74
:100C40009F4FF0683F2E2AE030E0A3010E947F0909
:100C5000882E861845C0853731F4232D2F7EB22E7D
:100C60002AE030E025C0932D997FB92E8F36C1F050
:100C700018F4883579F0B5C0803719F0883721F03D
:100C8000B0C0E92FE061BE2EB4FE0DC0FB2DF460B4
:100C9000BF2E09C034FE0AC0292F2660B22E06C01E
:100CA00028E030E005C020E130E002C020E132E081
:100CB000F801B7FE07C060817181828193810C5F6A
:100CC0001F4F06C06081718180E090E00E5F1F4F72
:100CD000A3010E947F09882E8618FB2DFF773F2EE7
:100CE00036FE0DC0232D2E7FA22E891458F434FE1B
:100CF0000BC032FC09C0832D8E7EA82E05C0B82CF7
:100D0000A32C03C0B82C01C0B92CA4FE0FC0FE0157
:100D1000E80DF11D8081803321F49A2D997EA92E52
:100D200009C0A2FE06C0B394B39404C08A2D86788D
:100D300009F0B394A3FC11C0A0FE06C0B21488F45D
:100D4000280C922C9B180EC0B21460F4B60180E2FD
:100D500090E00E944309B394F7CFB21418F42B1813
:100D600002C0982C212CA4FE10C0B60180E390E0B4
:100D70000E944309A2FE17C0A1FC03C088E790E0CF
:100D800002C088E590E0B6010CC08A2D867859F043
:100D9000A1FE02C08BE201C080E2A7FC8DE2B60199
:100DA00090E00E944309891438F4B60180E390E092
:100DB0000E9443099A94F7CF8A94F301E80DF11D3C
:100DC0008081B60190E00E9443098110F5CF222076
:100DD00009F442CEB60180E290E00E9443092A94D1
:100DE000F6CFF6018681978102C08FEF9FEF2B9699
:100DF000E2E10C94F909A9E0B0E0E1E0F7E00C943D
:100E0000E3096A01122FB02E2BE3201720F0FF24F4
:100E1000F394F00E02C02CE3F22E0F2D27E0AE016A
:100E20004F5F5F4F0E945508BC014981842F897034
:100E3000813031F0E1FC06C0E0FE06C090E205C062
:100E40009DE203C09BE201C090E05E2D507143FF24
:100E50003CC0911102C083E001C084E0811718F406
:100E6000212F281B01C020E051110BC0F601822F59
:100E700030E2882319F031938150FBCFC20ED11C90
:100E800020E0992329F0D6019C93F60131966F0159
:100E9000C6010396E2FE0AC03EE4D6013C9341E45B
:100EA00011964C93119712963C9306C03EE6F601BC
:100EB000308341E641833283FC01322F40E2332309
:100EC00009F442C041933150FACF42FF44C091111E
:100ED00002C083E001C084E0811718F4212F281B91
:100EE00001C020E051110BC0F601822F30E28823AF
:100EF00019F031938150FBCFC20ED11C20E0992311
:100F000029F0D6019C93F60131966F01C601039634
:100F1000E2FE0BC039E4D6013C933EE411963C93CB
:100F2000119736E412963C9307C039E6F6013083F8
:100F30003EE6318336E63283FC01322F40E2332332
:100F400019F041933150FBCFFC01E20FF11D1082EB
:100F50008EEF9FEFA6C021E030E0911102C020E0AB
:100F600030E0161617061CF4FB01319602C0E1E0D2
:100F7000F0E02E0F3F1FBB2021F0EB2DF0E031966B
:100F800002C0E0E0F0E02E0F3F1FE12FF0E02E174F
:100F90003F071CF4121B212F01C020E08E2D887109
:100FA00059F4F601822F30E2882319F031938150F1
:100FB000FBCFC20ED11C20E0992329F0D6019C93CF
:100FC000F60131966F0151110BC0F601822F90E3AB
:100FD000882319F091938150FBCFC20ED11C20E0E1
:100FE0000F2D060F9A81342F307144FF03C09133C7
:100FF00009F40150101624F4093018F008E001C07B
:1010000001E0AB0177FF02C040E050E0FB01E41BD0
:10101000F50BA1E0B0E0AC0FBD1FEA0FFB1F8EE2A5
:10102000A82E4B01801A91080B2D10E01195019507
:1010300011094F3FBFEF5B0721F4D601AC92119627
:101040006D01641775072CF08416950614F48181E0
:1010500001C080E3415051093196D60111967D01BE
:101060004017510724F0D6018C936701E2CF641733
:10107000750739F4963320F4953319F4311101C012
:1010800081E3F6018083F701822F90E2882319F033
:1010900091938150FBCFF701E20FF11D108280E0A8
:1010A00090E02996ECE00C94FF09283008F027E046
:1010B0003327DA01990F311D87FD91600096610594
:1010C000710539F432602E5F3D9330E32A95E1F7E4
:1010D00008959F3F30F080387105610509F03C5F4D
:1010E0003C5F3D93913008F08068911DDF93CF9372
:1010F0001F930F93FF92EF92192F987F9695E92FE8
:1011000096959695E90FFF27E255FF4F99273327CC
:10111000EE24FF24A701E70105900894079428F422
:10112000360FE71EF81E491F511D660F771F881FD7
:10113000991F0694A1F70590079428F4E70EF81E6E
:10114000491F561FC11D770F881F991F661F0694E0
:10115000A1F70590079428F4F80E491F561FC71FE2
:10116000D11D880F991F661F771F0694A1F7059060
:10117000079420F4490F561FC71FD81F990F661FE9
:10118000771F881F0694A9F784911095177041F076
:10119000D695C79557954795F794E7941A95C1F753
:1011A000E4E5F0E06894159015913591659195917D
:1011B00005907FE27395E118F10A430B560BC90BBA
:1011C000D009C0F7E10CF11E431F561FC91FD01DE7
:1011D0007EF4703311F48A95E6CFE894015030F034
:1011E000080F0AF40027021708F4202F2395022F76
:1011F0007A3328F079E37D932A95E9F710C07D933F
:101200002A9589F6069497956795379517951794BB
:10121000E118F10A430B560BC90BD00998F023953E
:101220007E9173957A3308F070E37C932013B8F7BE
:101230007E9170617D9330F0839571E37D9370E3CF
:101240002A95E1F71124EF90FF900F911F91CF9114
:10125000DF91992787FD90950895FC0105906150D5
:1012600070400110D8F7809590958E0F9F1F0895BC
:10127000FC016150704001900110D8F78095909565
:101280008E0F9F1F08950F931F93CF93DF93FB0142
:10129000238121FD03C08FEF9FEF2CC022FF16C0DA
:1012A00046815781248135814217530744F4A08138
:1012B000B1819D012F5F3F4F318320838C93268125
:1012C00037812F5F3F4F3783268314C08B01EC019A
:1012D000FB010084F185E02D0995892BE1F6D80109
:1012E00016968D919C911797019617969C938E93C5
:1012F0001697CE01DF91CF911F910F910895FA01BA
:10130000AA27283051F1203181F1E8946F936E7F44
:101310006E5F7F4F8F4F9F4FAF4FB1E03ED0B4E035
:101320003CD0670F781F891F9A1FA11D680F791F76
:101330008A1F911DA11D6A0F711D811D911DA11D87
:1013400020D009F468943F912AE0269F1124301997
:10135000305D3193DEF6CF010895462F4770405D32
:101360004193B3E00FD0C9F7F6CF462F4F70405DE1
:101370004A3318F0495D31FD4052419302D0A9F73C
:10138000EACFB4E0A6959795879577956795BA9536
:10139000C9F700976105710508959B01AC010A2EFC
:1013A00006945795479537952795BA95C9F7620FD3
:1013B000731F841F951FA01D08952F923F924F9277
:1013C0005F926F927F928F929F92AF92BF92CF92D5
:1013D000DF92EF92FF920F931F93CF93DF93CDB7DE
:1013E000DEB7CA1BDB0B0FB6F894DEBF0FBECDBF56
:1013F00009942A88398848885F846E847D848C8427
:101400009B84AA84B984C884DF80EE80FD800C812F
:101410001B81AA81B981CE0FD11D0FB6F894DEBF12
:0C1420000FBECDBFED010895F894FFCF82
:10142C000041783D257320670900793D25732067BD
:0E143C0009002054203D20257325634309003C
:00000001FF
