S01000006C63645F646570652E73726563E4
S11300000C942A000C9434000C9434000C943400A6
S11300100C9434000C9434000C9434000C9434008C
S11300200C9434000C9434000C9434000C9434007C
S11300300C9434000C9434000C9434000C9434006C
S11300400C9434000C9434000C9434000C9434005C
S11300500C94340011241FBECFE5D8E0DEBFCDBF21
S11300600E9464000C94A6000C940000959A000071
S1130070000082B3807C82BB089517BA979A82B33A
S1130080887F82BBC79B04C00E943600C799FCCFFF
S11300908FEF87BB0895CF93C82F0E943D00C8BB44
S11300A082B38B7782BB0E94360018BACF91089531
S11300B0CF93C82F0E943D00C8BB9798929A0E9484
S11300C0360018BACF91089581B3846A81BB85EA5A
S11300D09EE00197F1F700C0000081E00E944B0010
S11300E083EF91E00197F1F700C0000088E30E94DC
S11300F04B0090E19A95F1F700C08FE00E944B000D
S113010080E18A95F1F700C088E40E94580085E6F2
S11301100E9458008CE60E9458008CE60E94580009
S11301208FE60E9458008FE50E94580083E50E94E4
S1130130580086E50E9458008EE40E94580089E425
S11301400E94580084E50E945800FFCFF894FFCF26
S9030000FC
