:100000000C942A000C9447000C9447000C94470071
:100010000C9447000C9447000C9447000C94470044
:100020000C9447000C9447000C9447000C94470034
:100030000C9447000C9447000C9447000C94470024
:100040000C9447000C9447000C9447000C94470014
:100050000C94470011241FBECFE5D8E0DEBFCDBF12
:1000600010E0A0E6B0E0E6E9F1E002C005900D92F4
:10007000A238B107D9F720E0A2E8B0E001C01D9294
:10008000A238B207E1F70E94AA000C94C9000C94B0
:10009000000088BB82B38B7782BB959A83EC99E092
:1000A0000197F1F700C000009598089588BB9798D4
:1000B00082B3846282BB83EC99E00197F1F700C0C0
:1000C00000009598089581B3846A81BB83EC99E020
:1000D0000197F1F700C0000087B38FEF87BB83EC77
:1000E00099E00197F1F700C0000081E00E9449000B
:1000F00083EF91E00197F1F700C0000088E30E94D0
:10010000490083ED90E30197F1F700C000008EE015
:100110000E94490083ED90E30197F1F700C00000D1
:100120000895CF93DF93EC018881882331F02196E5
:100130000E94560089918111FBCFDF91CF910895E4
:10014000E62FF0E0E15AFF4F80589081890F0E941E
:10015000490008950E946300CFE061E08C2F0E9467
:10016000A00082E690E00E9491002FE38DE093E0F2
:10017000215080409040E1F700C0000061E08C2FEA
:100180000E94A00082E790E00E949100C15029F7F0
:06019000E3CFF894FFCF5D
:100196000041537572617420746F204B616E7075E7
:1001A6007200202020202020202020202020202017
:0201B600200027
:00000001FF
