:100000000C9441000C946F010C945E000C945E0003
:100010000C945E000C945E000C945E000C945E00E8
:100020000C945E000C945E000C945E000C945E00D8
:100030000C945E000C945E000C945E000C945E00C8
:100040000C945E000C945E000C945E000C945E00B8
:100050000C945E00084AD73B3BCE016E84BCBFFDCA
:10006000C12F3D6C74319ABD56833DDA3D00C77F88
:1000700011BED9E4BB4C3E916BAAAABE0000008021
:100080003F0011241FBECFE5D8E0DEBFCDBF10E09A
:10009000A0E6B0E0E6E9F9E002C005900D92A836CE
:1000A000B107D9F720E0A8E6B0E001C01D92AC3658
:1000B000B207E1F70E94FC000C94C9040C94000004
:1000C00088BB82B3877782BB959A83EC99E00197CE
:1000D000F1F700C000009598089588BB979882B307
:1000E000886282BB83EC99E00197F1F700C00000C1
:1000F0009598089581B3886A81BB83EC99E0019754
:10010000F1F700C0000087B38FEF87BB83EC99E065
:100110000197F1F700C0000081E00E94600083EFCA
:1001200091E00197F1F700C0000088E30E946000B1
:1001300083ED90E30197F1F700C000008EE00E948C
:10014000600083ED90E30197F1F700C0000008958F
:10015000CF93DF93EC018881882331F021960E94B0
:100160006D0089918111FBCFDF91CF910895E62F2A
:10017000F0E0E15AFF4F80589081890F0E946000A3
:1001800008958F929F92AF92BF92CF92DF92EF929B
:10019000FF929B01AC010E94A0036B017C019B01BB
:1001A000AC0160E070E081E694E40E949F014B01A5
:1001B0005C01A7019601C501B4010E943B020E94A7
:1001C00013040E940C029B01AC010E94A00120E0DC
:1001D00030E044E353E40E94A00323EC35EF48E40D
:1001E00050E40E943B02FF90EF90DF90CF90BF90D1
:1001F000AF909F908F900895CF93DF93CDB7DEB7E8
:10020000E0970FB6F894DEBF0FBECDBF8BEF81BB7A
:1002100083ED90E30197F1F700C000000E947A009F
:100220008BB780648BBF85B7816085BF1FBC789416
:100230000F2EFAE3EF2EF12CF02D909A95E09A957F
:10024000F1F7909880916A0090916B00B7010E943D
:100250006C048B016F31710584F7072E000C880B3D
:10026000990B0E94E5020E94C1000E94AD024B0161
:100270005C014AE0BE016F5F7F4FC4010E9494049D
:1002800061E081E00E94B70085E690E00E94A8004E
:10029000CE0101960E94A80085E690E00E94A80089
:1002A0004AE0BE016F5D7F4FC4010E94940461E08B
:1002B00085E00E94B7004AE0BE016F5E7F4FC80133
:1002C0000E94940485E690E00E94A800CE01419629
:1002D0000E94A80082E690E00E94A800AECF1F9284
:1002E0000F920FB60F9211248F939F938091680005
:1002F00090916900019769F41EBC8CB59DB59093EF
:100300006B0080936A001DBC1CBC109269001092A7
:1003100068008091680090916900892B49F48EB53E
:1003200081608EBD81E090E09093690080936800C9
:100330009F918F910F900FBE0F901F90189550585E
:10034000BB27AA270E94B7010C945E030E945003AA
:1003500038F00E94570320F039F49F3F19F426F437
:100360000C9426030EF4E095E7FB0C942003E92F90
:100370000E946F0358F3BA17620773078407950743
:1003800020F079F4A6F50C9491030EF4E0950B2E71
:10039000BA2FA02D0B01B90190010C01CA01A001D7
:1003A0001124FF27591B99F0593F50F4503E68F132
:1003B0001A16F040A22F232F342F4427585FF3CF73
:1003C000469537952795A795F0405395C9F77EF444
:1003D0001F16BA0B620B730B840BBAF09150A1F08D
:1003E000FF0FBB1F661F771F881FC2F70EC0BA0F13
:1003F000621F731F841F48F4879577956795B7959B
:10040000F7959E3F08F0B0CF9395880F08F0992795
:10041000EE0F979587950895DF93DD27B92FBF7766
:1004200040E85FE31616170648075B0718F4D92F54
:100430000E9498039F938F937F936F930E9453041E
:10044000E4E5F0E00E9429030E945E032F913F91B2
:100450004F915F910E94B303DD2351F09058A2EABF
:100460002AED3FE049EC5FE3D0785D270E94B701B9
:10047000DF910C945E030E944F020C945E030E9475
:10048000570358F00E94500340F029F45F3F29F0D1
:100490000C94200351110C9492030C9426030E9497
:1004A0006F0368F39923B1F3552391F3951B550B13
:1004B000BB27AA2762177307840738F09F5F5F4F37
:1004C000220F331F441FAA1FA9F335D00E2E3AF076
:1004D000E0E832D091505040E695001CCAF72BD08E
:1004E000FE2F29D0660F771F881FBB1F26173707DF
:1004F0004807AB07B0E809F0BB0B802DBF01FF2711
:1005000093585F4F3AF09E3F510578F00C942003CA
:100510000C9492035F3FE4F3983ED4F3869577956D
:100520006795B795F7959F5FC9F7880F911D9695C9
:10053000879597F90895E1E0660F771F881FBB1F25
:10054000621773078407BA0720F0621B730B840BD2
:10055000BA0BEE1F88F7E09508950E94B4026894E4
:10056000B1110C94920308950E94770388F09F576D
:1005700098F0B92F9927B751B0F0E1F0660F771FC7
:10058000881F991F1AF0BA95C9F714C0B13091F0BD
:100590000E949103B1E008950C949103672F782F86
:1005A0008827B85F39F0B93FCCF386957795679582
:1005B000B395D9F73EF490958095709561957F4FEE
:1005C0008F4F9F4F0895E89409C097FB3EF4909594
:1005D0008095709561957F4F8F4F9F4F9923A9F01C
:1005E000F92F96E9BB279395F695879577956795AB
:1005F000B795F111F8CFFAF4BB0F11F460FF1BC0EF
:100600006F5F7F4F8F4F9F4F16C0882311F096E981
:1006100011C0772321F09EE8872F762F05C066232F
:1006200071F096E8862F70E060E02AF09A95660FE8
:10063000771F881FDAF7880F9695879597F90895A1
:1006400097F99F6780E870E060E008959FEF80EC85
:100650000895DF93CF931F930F93FF92EF92DF9252
:100660007B018C01689406C0DA2EEF010E94B3036F
:10067000FE01E894A5912591359145915591A6F3F8
:10068000EF010E94B701FE019701A801DA9469F712
:10069000DF90EF90FF900F911F91CF91DF91089520
:1006A00000240A9416161706180609060895002451
:1006B0000A9412161306140605060895092E0394CB
:1006C000000C11F4882352F0BB0F40F4BF2B11F43F
:1006D00060FF04C06F5F7F4F8F4F9F4F089557FD9E
:1006E0009058440F551F59F05F3F71F04795880FA0
:1006F00097FB991F61F09F3F79F087950895121637
:1007000013061406551FF2CF4695F1DF08C01616E2
:1007100017061806991FF1CF869571056105089493
:100720000895E894BB2766277727CB0197F90895AA
:100730009B01AC0160E070E080E89FE30C943B0219
:100740000E94B3030C945E030E94500338F00E9491
:10075000570320F0952311F00C9420030C942603EA
:1007600011240C9492030E946F0370F3959FC1F3C0
:10077000950F50E0551F629FF001729FBB27F00D4F
:10078000B11D639FAA27F00DB11DAA1F649F6627A4
:10079000B00DA11D661F829F2227B00DA11D621FF3
:1007A000739FB00DA11D621F839FA00D611D221FAD
:1007B000749F3327A00D611D231F849F600D211D91
:1007C000822F762F6A2F11249F5750409AF0F1F014
:1007D00088234AF0EE0FFF1FBB1F661F771F881F7D
:1007E00091505040A9F79E3F510580F00C94200392
:1007F0000C9492035F3FE4F3983ED4F3869577958B
:100800006795B795F795E7959F5FC1F7FE2B880F22
:10081000911D9695879597F9089519F416F40C94FF
:1008200026030C9457040E947703B8F39923C9F365
:10083000B6F39F57550B87FF0E9465040024A0E67E
:1008400040EA900180585695979528F4805C660F91
:10085000771F881F20F026173707480730F4621BE0
:10086000730B840B202931294A2BA69517940794E2
:10087000202531254A2758F7660F771F881F20F05B
:1008800026173707480730F4620B730B840B200DD3
:10089000311D411DA09581F7B901842F9158880F12
:1008A0009695879508959B01AC010C94A0039F3FFA
:1008B00031F0915020F4879577956795B795880F1B
:1008C000911D9695879597F9089591505040660F20
:1008D000771F881FD2F7089597FB072E16F4009410
:1008E00007D077FD09D00E94800407FC05D03EF4B4
:1008F000909581959F4F0895709561957F4F0895CC
:10090000AA1BBB1B51E107C0AA1FBB1FA617B70735
:1009100010F0A61BB70B881F991F5A95A9F7809551
:100920009095BC01CD010895BB274A3031F499233D
:1009300022F4BDE2909581959F4F0C94A004BB27B3
:10094000FB015527AA27880F991FAA1FA41710F08B
:10095000A41B83955051B9F7A05DAA3308F0A95D97
:10096000A193009779F7B111B1931192CB010C9437
:10097000B904DC01FC01672F71917723E1F732970D
:1009800004C07C916D9370836291AE17BF07C8F36A
:060990000895F894FFCF6A
:08099600004120202020000098
:00000001FF
