:100000000C942A000C9447000C9447000C94470071
:100010000C9447000C9447000C9447000C94490042
:100020000C9447000C9447000C9447000C94470034
:100030000C9447000C9447000C9447000C94470024
:100040000C9447000C9447000C9447000C94470014
:100050000C94470011241FBECFE5D8E0DEBFCDBF12
:1000600010E0A0E6B0E0E0E6F1E002C005900D92FD
:10007000A237B107D9F720E0A2E7B0E001C01D9296
:10008000A337B207E1F70E947A000C94AE000C94FB
:1000900000001F920F920FB60F9211248F939F931F
:1000A000EF93FF9381E090E00090720002C0880F10
:1000B000991F0A94E2F788BBE0917200F0E0EE0F1E
:1000C000FF1FE05AFF4F808191819BBD8ABD8091C7
:1000D00072008F5F893018F48093720002C0109212
:1000E0007200FF91EF919F918F910F900FBE0F9033
:1000F0001F9018958FEF87BB8EB58A608EBD89B72C
:10010000806189BF8AEF9FEF9DBD8CBD7894E0E64A
:10011000F0E048EE53E02CED35E080ED97E05183C0
:10012000408353834283AFE4B3EC1197F1F700C0EF
:1001300000003183208333832283AFE4B3EC119733
:10014000F1F700C000009183808393838283AFE442
:10015000B3EC1197F1F700C00000E1CFF894FFCFA6
:10016000DC05DC05DC05DC05DC05DC05DC05DC0587
:02017000701706
:00000001FF
