S00A000052522E7372656376
S11300000C942A000C9458000C943C000C943C0072
S11300100C943C000C943C000C943C000C949C000C
S11300200C943C000C943C000C943C000C943C005C
S11300300C943C000C943C000C943C000C943C004C
S11300400C943C000C943C000C943C000C943C003C
S11300500C943C0011241FBECFE5D8E0DEBFCDBF19
S113006020E0A0E6B0E001C01D92A436B207E1F79B
S11300700E9488000C94AA000C9400008BEF81BBB2
S113008083ED90E30197F1F700C000008BB7806423
S11300908BBF85B7816085BF1FBC7894909A95E02B
S11300A09A95F1F790988091620090916300F6CF51
S11300B01F920F920FB60F9211248F939F938091EA
S11300C0600090916100019769F41EBC8CB59DB5E8
S11300D090936300809362001DBC1CBC109261006D
S11300E0109260008091600090916100892B49F426
S11300F08EB581608EBD81E090E090936100809325
S113010060009F918F910F900FBE0F901F901895D4
S113011087B38F6087BB8FB582688FBD8EB58961C9
S11301208EBD89B7806189BF1FBC8FE19EE497BDF6
S113013086BD78940E943E001F920F920FB60F92D4
S113014011248F938FE088BB8F910F900FBE0F9077
S10B01501F901895F894FFCFED
S9030000FC
