S01000007472616E736D69742E73726563A2
S11300000C942A000C9434000C9434000C943400A6
S11300100C9434000C9434000C9434000C9434008C
S11300200C9434000C9434000C9434000C9434007C
S11300300C9434000C9434000C9434000C9434006C
S11300400C9434000C9434000C9434000C9434005C
S11300500C94340011241FBECFE5D8E0DEBFCDBF21
S11300600E9436000C9449000C94000010BC87E6F2
S113007089B988E08AB986E080BD88E38CB92FEF1E
S113008033ED90E3215030409040E1F700C0000090
S1090090F5CFF894FFCF48
S9030000FC
