:100000000C942A000C943F000C943F000C943F0089
:100010000C943F000C943F000C943F000C943F0064
:100020000C943F000C943F000C943F000C943F0054
:100030000C943F000C943F000C943F000C943F0044
:100040000C943F000C943F000C943F000C943F0034
:100050000C943F0011241FBECFE5D8E0DEBFCDBF1A
:1000600010E0A0E6B0E0ECE8F4E002C005900D92EC
:10007000A436B107D9F70E9402010C9444020C94F3
:10008000000084B384BB8DEF80B9089516BE94EA56
:1000900096BF06B607FEFDCF91B1987F983079F4F0
:1000A00083B984E886BF06B607FEFDCF91B1987F7D
:1000B000983139F081E0903429F480E0089581E0AE
:1000C000089580E0089583B984E886BF06B607FEE8
:1000D000FDCF91B1987F81E0983209F480E00895D6
:1000E000EF92FF920F931F93CF93DF93803191058F
:1000F000E0F4152F042FF72EE62EEC0180E80E9485
:1001000046008C2F880F880F8A5F0E9463008E2D17
:100110000E9463008F2D0E946300802F0E94630065
:10012000812F0E94630084E986BFDF91CF911F91E8
:100130000F91FF90EF90089540E050E060E070E193
:100140000E947000089540E050E160E070E00E947D
:10015000700008950F931F93CF938C01C62F6111E8
:1001600003C00E94A30016C0643618F00E949C00D1
:1001700011C080E090E10E94D6010E94D101AC0143
:1001800029E2C29F400D511D11245F70BC01C801BE
:100190000E947000CF911F910F910895CF93DF932C
:1001A000D82FC62F80E80E9446008D2F0E94630042
:1001B0008C2F0E94630084E986BFDF91CF91089560
:1001C00080E40E94460087EA91E60197F1F700C0BB
:1001D000000061E070E080E090E00E94CE0087EADD
:1001E00091E60197F1F700C0000061EA70E080E05D
:1001F00090E00E94CE0060E170E081E090E00E941B
:10020000CE0008950E9441000E94E000C0E0D0E0CE
:1002100062E3CE010E94AA002FE784E89EE121500C
:1002200080409040E1F700C000002196C630D10523
:1002300079F7C0E0D0E066E4CE010E94AA002FE387
:100240008DE093E0215080409040E1F700C0000035
:100250002196C630D10579F7C0E0D0E040E050E10A
:1002600060ED77E0CE010E9470002FE38DE093E017
:10027000215080409040E1F700C000002196C63038
:10028000D10561F7C0E0D0E040E050E164EC79E0F6
:10029000CE010E9470002FE38DE093E0215080405A
:1002A0009040E1F700C000002196C630D10561F70B
:1002B000C0E0D0E040E050E168EB7BE0CE010E947E
:1002C00070002FE38DE093E0215080409040E1F7F3
:1002D00000C000002196C630D10561F7C0E0D0E033
:1002E00040E050E160EA7FE0CE010E9470002FE321
:1002F0008DE093E0215080409040E1F700C0000085
:100300002196C630D10561F781CF8F929F92AF922F
:10031000BF92CF92DF92EF92FF92CF93DF93EC01E7
:10032000688179818A819B816115710581059105BB
:1003300021F464E279ED8BE597E02DE133EF41E0C4
:1003400050E00E94E10149015A019B01AC01A7EA7A
:10035000B1E40E9400026B017C01ACEEB4EFA50198
:1003600094010E940E02DC01CB018C0D9D1DAE1D7F
:10037000BF1DB7FF03C00197A109B04888839983C7
:10038000AA83BB839F77DF91CF91FF90EF90DF909F
:10039000CF90BF90AF909F908F9008950E9485015D
:1003A000089580E690E00E9485010895A0E0B0E005
:1003B0008093600090936100A0936200B09363000B
:1003C0000895052E97FB1EF400940E94F80157FD36
:1003D00007D00E94130207FC03D04EF40C94F801DE
:1003E00050954095309521953F4F4F4F5F4F089561
:1003F00090958095709561957F4F8F4F9F4F089591
:100400000E943502A59F900DB49F900DA49F800D72
:10041000911D11240895B7FF0C9400020E94000260
:10042000821B930B0895A1E21A2EAA1BBB1BFD0190
:100430000DC0AA1FBB1FEE1FFF1FA217B307E407C3
:10044000F50720F0A21BB30BE40BF50B661F771F1B
:10045000881F991F1A9469F76095709580959095FB
:100460009B01AC01BD01CF010895A29FB001B39FD4
:10047000C001A39F700D811D1124911DB29F700DAD
:0C048000811D1124911D0895F894FFCFF8
:04048C00010000006B
:00000001FF
