:100000000C942A000C9434000C9434000C943400AA
:100010000C9434000C9434000C9434000C946E0056
:100020000C9434000C9434000C9434000C94340080
:100030000C9434000C9434000C9434000C94340070
:100040000C9434000C9434000C9434000C94340060
:100050000C94340011241FBECFE5D8E0DEBFCDBF25
:100060000E9436000C947C000C94000087B38F60D3
:1000700087BB8FB582688FBD8EB589618EBD89B70C
:10008000806189BF8FE19EE497BD86BD78948CB571
:100090009DB58E349240D0F08CB59DB589329A4092
:1000A000A8F48CB59DB58835924010F0C099C098E1
:1000B0008CB59DB58835924010F0C199C1988CB52A
:1000C0009DB58835924010F0C299C2988CB59DB507
:1000D0008E349240E0F28CB59DB5D9CF1F920F922D
:1000E0000FB60F9211248F938FE088BB8F910F90E2
:0C00F0000FBE0F901F901895F894FFCFE2
:00000001FF
